:100000000C9432000C94F2000C9447000C944700BE
:100010000C9447000C9447000C9447000C94470044
:100020000C9447000C9447000C9447000C94470034
:100030000C9447000C9447000C9447000C94470024
:100040000C9447000C9447000C9447000C94470014
:100050000C9447002503020307030C031103160346
:100060001B03200311241FBECFE5D8E0DEBFCDBFA8
:1000700010E0A0E6B0E0E2ECF6E002C005900D92E0
:10008000A236B107D9F70E94EB000C945F030C94E1
:10009000000061E480E00E94DC0061E481E00E94F5
:1000A000DC0061E482E00E94DC0062E480E00E9407
:1000B000DC0062E481E00E94DC0062E482E00E94F5
:1000C000DC000E94E7020895CF92DF92EF920F9337
:1000D0001F93CF936C0162E480E00E94E00087E60A
:1000E000F601808361E482E00E94E0000F2EF4EFCD
:1000F000EF2EF02D02E510E024E130E046E463E568
:1001000070E088E590E00E942C03C0E011C061E43B
:1001100081E00E94E800E12C02E510E024E030E0FC
:1001200046E463E570E088E590E00E942C03CF5F31
:10013000C53068F361E481E00E94E40061E482E09C
:100140000E94E40082E7F601808361E480E00E947F
:10015000E0000F2EF4EFEF2EF02D02E510E024E189
:1001600030E046E463E570E088E590E00E942C030F
:10017000C0E011C061E481E00E94E800E12C02E5EA
:1001800010E024E030E046E463E570E088E590E0CC
:100190000E942C03CF5FC53068F361E481E00E94C8
:1001A000E40061E480E00E94E400CF911F910F9190
:1001B000EF90DF90CF90089541E00E94E50108950F
:1001C00041E00E943F02089540E00E943F020895EE
:1001D0000E94990208950E94490080E690E00E94E2
:1001E0006400FBCF1F920F920FB60F921124EF9273
:1001F0000F931F932F933F934F935F936F937F932F
:100200008F939F93AF93BF93CF93EF93FF9380917F
:100210006000873609F07AC061E482E00E94E00065
:1002200062E480E00E94E000C0E015C061E481E08B
:100230000E94E80062E481E00E94E800E12C02E50F
:1002400010E024E030E046E463E570E088E590E00B
:100250000E942C03CF5FC53048F361E481E00E9427
:10026000E40062E481E00E94E40061E482E00E9434
:10027000E40062E480E00E94E40062E482E00E9424
:10028000E00061E480E00E94E0000F2EF4EFEF2E2A
:10029000F02D02E510E024E130E046E463E570E093
:1002A00088E590E00E942C03C0E015C061E481E085
:1002B0000E94E80062E481E00E94E800E12C02E58F
:1002C00010E024E030E046E463E570E088E590E08B
:1002D0000E942C03CF5FC53048F362E482E00E94A5
:1002E000E40061E480E00E94E40061E481E00E94B7
:1002F000E40062E481E00E94E40061E482E00E94A4
:10030000E00062E480E00E94E00048C062E482E035
:100310000E94E00062E480E00E94E4000F2EF4EF0F
:10032000EF2EF02D02E510E024E130E046E463E535
:1003300070E088E590E00E942C03C0E015C061E405
:1003400081E00E94E80062E481E00E94E800E12C84
:1003500002E510E024E030E046E463E570E088E583
:1003600090E00E942C03CF5FC53048F362E482E046
:100370000E94E40061E480E00E94E40061E481E026
:100380000E94E40062E481E00E94E40061E482E013
:100390000E94E00062E480E00E94E0000C94000013
:1003A000FF91EF91CF91BF91AF919F918F917F91ED
:1003B0006F915F914F913F912F911F910F91EF900E
:1003C0000F900FBE0F901F901895883008F04BC00B
:1003D0006234C9F018F4613431F047C0633419F164
:1003E000643489F142C0413031F46AE370E00E9424
:1003F000C20280E0089541113AC06AE370E00E94B1
:10040000CE0280E00895413031F467E370E00E944D
:10041000C20280E0089541112CC067E370E00E94A1
:10042000CE0280E00895413031F464E370E00E9430
:10043000C20280E0089541111EC064E370E00E9492
:10044000CE0280E00895413031F461E370E00E9413
:10045000C20280E00895411110C061E370E00E9483
:10046000CE0280E0089582E0089581E0089580E062
:10047000089580E0089580E0089580E00895883030
:1004800008F04BC06234C9F018F4613431F047C051
:10049000633419F1643489F142C0413031F46BE3C3
:1004A00070E00E94C20280E0089541113AC06BE3FF
:1004B00070E00E94CE0280E00895413031F468E39C
:1004C00070E00E94C20280E0089541112CC068E3F0
:1004D00070E00E94CE0280E00895413031F465E37F
:1004E00070E00E94C20280E0089541111EC065E3E1
:1004F00070E00E94CE0280E00895413031F462E362
:1005000070E00E94C20280E00895411110C062E3D1
:1005100070E00E94CE0280E0089582E0089581E0BC
:10052000089580E0089580E0089580E0089580E0D7
:100530000895883018F5623479F018F4613431F098
:100540001FC0633479F0643499F01AC06BE370E033
:100550000E94DB0280E0089568E370E00E94DB0205
:1005600080E0089565E370E00E94DB0280E008957A
:1005700062E370E00E94DB0280E0089582E008956B
:1005800081E00895FB01908121E030E002C0220F5C
:10059000331F8A95E2F7292B20830895FB01908170
:1005A00021E030E002C0220F331F8A95E2F7209548
:1005B000292320830895FB01908121E030E002C0CF
:1005C000220F331F8A95E2F7292720830895789414
:1005D00085B7826085BF8BB780648BBF0895FC01AF
:1005E00060830895FC011082462F50E0FA01E15427
:1005F000F109E830F10520F4E65DFF4F0C94590352
:1006000081E0089521E0FC01208380E0089522E04C
:10061000FC01208380E0089523E0FC01208380E03A
:10062000089524E0FC01208380E0089525E0FC018A
:10063000208380E0089526E0FC01208380E0089577
:1006400027E0FC01208380E0089580E00895FC010C
:100650009081916090830895CF92DF92EF92FF9204
:100660000F931F93CF93DF93EC01CB016901642FAC
:100670000E94F202F82E811112C06E2DC8010E9454
:10068000EF0200E010E008C0888180FFFDCFCE01BE
:100690000E9427030F5F1F4F0C151D05A8F38F2D18
:1006A000DF91CF911F910F91FF90EF90DF90CF904E
:1006B0000895EE0FFF1F0590F491E02D0994F89432
:0206C000FFCF6A
:0206C2007200C4
:00000001FF
